:100000000C9468000C9490000C9490000C94900058
:100010000C9490000C9490000C9490000C94900020
:100020000C9490000C9490000C9490000C94900010
:100030000C9490000C9490000C9490000C94900000
:100040000C9468030C9490000C944D010C942701BF
:100050000C9490000C9490000C9490000C949000E0
:100060000C9432050C9490001F1C1F1E1F1E1F1F96
:100070001E1F1E1F00000000240027002A00000091
:100080000000250028002B000000000800020100ED
:100090000003040700000000000000000000000052
:1000A00023002600290004040404040404040202BA
:1000B00002020202030303030303010204081020E7
:1000C00040800102040810200102040810209B0E49
:1000D00011241FBECFEFD8E0DEBFCDBF12E0A0E0FD
:1000E000B1E0EEE4F2E202C005900D92A230B10759
:1000F000D9F723E0A2E0B2E001C01D92AE3FB20703
:10010000E1F710E0C8E6D0E004C02197FE010E94AC
:10011000070FC736D107C9F70E94D6090C942511DD
:100120000C940000FC01918D828D981761F0828DF6
:10013000DF01A80FB11D5D968C91928D9F5F9F731B
:10014000928F90E008958FEF9FEF0895FC01918DBD
:10015000828D981731F0828DE80FF11D858D90E02A
:1001600008958FEF9FEF08958FE293E00E947F0143
:1001700021E0892B09F420E0822F0895EF92FF926D
:100180000F931F93CF93DF93EC0181E0888F9B8DBA
:100190008C8D981305C0E889F989808185FD24C07C
:1001A000F62E0B8D10E00F5F1F4F0F731127E02EFF
:1001B0008C8DE8120CC00FB607FCFACFE889F989DC
:1001C000808185FFF5CFCE010E947902F1CF8B8D22
:1001D000FE01E80FF11DE35AFF4FF0820B8FEA8911
:1001E000FB898081806207C0EE89FF896083E8898E
:1001F000F98980818064808381E090E0DF91CF91F4
:100200001F910F91FF90EF900895CF93DF93EC0132
:10021000888D8823C9F0EA89FB89808185FD05C026
:10022000A889B9898C9186FD0FC00FB607FCF5CF60
:10023000808185FFF2CFA889B9898C9185FFEDCFA8
:10024000CE010E947902E7CFDF91CF9108951F92EE
:100250000F920FB60F9211242F933F934F935F93FA
:100260006F937F938F939F93AF93BF93EF93FF937E
:100270008FE293E00E947902FF91EF91BF91AF91DD
:100280009F918F917F916F915F914F913F912F91AE
:100290000F900FBE0F901F9018951F920F920FB6E0
:1002A0000F9211242F938F939F93EF93FF93E091DD
:1002B0003F03F09140038081E0914503F0914603B4
:1002C00082FD12C09081809148038F5F8F732091CF
:1002D0004903821751F0E0914803F0E0E15DFC4FE3
:1002E000958F8093480301C08081FF91EF919F918A
:1002F0008F912F910F900FBE0F901F901895FC01BA
:10030000918D228D892F90E0805C9F4F821B9109F7
:100310008F739927089580E090E0892B29F00E943F
:10032000B40081110C94000008953FB7F8948091B7
:10033000170390911803A0911903B0911A0326B5E1
:10034000A89B05C02F3F19F00196A11DB11D3FBF0D
:10035000BA2FA92F982F8827820F911DA11DB11D9B
:10036000BC01CD0142E0660F771F881F991F4A9597
:10037000D1F7089585ED8093BC008091BC0084FD89
:10038000FCCF10920402089540918702262F30E09E
:10039000240F311D21323105DCF420910402243078
:1003A000C9F4FC0180E090E0861758F43091870290
:1003B0002191DC01AB59BD4FA30FB11D2C930196C8
:1003C000F3CF80918702680F6093870280E00895E1
:1003D00081E0089582E008950895E09108028091F7
:1003E0000702E81730F4F0E0EE50FD4F808190E016
:1003F00008958FEF9FEF0895909108028091070272
:10040000981750F4E92FF0E0EE50FD4F208130E0D6
:100410009F5F9093080202C02FEF3FEFC90108953C
:100420008091070290E020910802821B91090895B3
:10043000CF92DF92EF92FF920F931F93CF93DF93B0
:100440007C01262F972F8A018091AC02882391F09E
:10045000C62FD72F6E01C40ED51ECC15DD0571F049
:100460006991D701ED91FC910190F081E02DC701D8
:100470000995F3CF642F822F0E94C401C801DF9138
:10048000CF911F910F91FF90EF90DF90CF90089543
:10049000CF93DF931F92CDB7DEB769832091AC0273
:1004A0002223D1F020910502203240F021E030E0FB
:1004B000FC013383228380E090E015C08091060226
:1004C000E82FF0E0E355FD4F998190838F5F809393
:1004D00006028093050205C061E0CE0101960E94EC
:1004E000C40181E090E00F90DF91CF9108950E94C8
:1004F000AE0FFC01848DDF01A80FB11DA35ABF4FC1
:100500002C91848D90E001968F739927848FA68912
:10051000B7892C93A089B1898C9180648C93938D39
:10052000848D981306C00288F389E02D80818F7D29
:100530008083089590E0FC01E857FF4F3491FC015F
:10054000E654FF4F2491FC01EA55FF4FE491EE235E
:1005500009F43BC0332339F1333091F038F43130B2
:10056000A9F0323001F584B58F7D12C0373091F09B
:100570003830A1F03430B9F4809180008F7D03C011
:10058000809180008F77809380000DC084B58F7735
:1005900084BD09C08091B0008F7703C08091B00006
:1005A0008F7D8093B000F0E0EE0FFF1FE258FF4F09
:1005B000A591B4918FB7F894EC91611103C0209587
:1005C0002E2301C02E2B2C938FBF0895CF93DF9342
:1005D00090E0FC01E654FF4F2491FC01EA55FF4FE7
:1005E0008491882361F190E0880F991FFC01EC58F9
:1005F000FF4FC591D491FC01E258FF4FA591B491F2
:10060000611109C09FB7F89488812095822388835F
:10061000EC912E230BC0623061F49FB7F8943881BF
:10062000822F809583238883EC912E2B2C939FBF60
:1006300006C08FB7F894E8812E2B28838FBFDF91F7
:10064000CF9108958F929F92AF92BF92CF92DF92F7
:10065000EF92FF926B017C010E9495014B015C01BE
:10066000C114D104E104F104F1F00E949501DC0110
:10067000CB0188199909AA09BB09883E9340A105B5
:10068000B10570F321E0C21AD108E108F10888EE43
:10069000880E83E0981EA11CB11CC114D104E10492
:1006A000F10419F7DDCFFF90EF90DF90CF90BF906E
:1006B000AF909F908F9008952FB7F8946091130397
:1006C0007091140380911503909116032FBF089524
:1006D0001F920F920FB60F9211242F933F938F9377
:1006E0009F93AF93BF938091130390911403A091B4
:1006F0001503B09116033091120323E0230F2D3719
:1007000020F40196A11DB11D05C026E8230F029615
:10071000A11DB11D20931203809313039093140322
:10072000A0931503B09316038091170390911803BB
:10073000A0911903B0911A030196A11DB11D8093D8
:10074000170390931803A0931903B0931A03BF9152
:10075000AF919F918F913F912F910F900FBE0F906E
:100760001F901895CF92DF92EF92FF920F931F93F5
:10077000CF93DF93EC0181E08093AC0288E6809315
:10078000CD02109206021092050260E08EEC93E01A
:100790000E94480280910502813208F045C0909184
:1007A00004029111FCCF92E09093040291E09093A7
:1007B00003029FEF9093F1021092F0028093EF02F8
:1007C000ADEAB2E02EEC32E0F9019E2F921B9817B1
:1007D00018F49D919193F9CF1092EE028091EE0260
:1007E000806D8093EE0280910202813061F410925C
:1007F00002028091EE028093BB008091BC0083FDD9
:10080000F8CF85EC01C085EE8093BC008091040296
:100810008230E1F38091F1028F3F31F08091F1025B
:10082000803211F08091F1021092060210920502BE
:100830001092AC02809104028111FCCF81E0809380
:100840000402809303029FEF9093F1021092F00252
:1008500096E09093EF028093EE028091EE02806D1D
:100860008093EE0280910202813061F410920202C4
:100870008091EE028093BB008091BC0083FDF8CF95
:1008800085EC01C085EE8093BC008091040281302C
:10089000E1F38091F002873018F48091F00201C0FA
:1008A00087E0AEECB2E022EF32E0F9019E2F921B1E
:1008B000981718F49D919193F9CF109208028093A4
:1008C00007028EEC93E00E94FC018F77982F92959F
:1008D0009F701AEF082F919F000D11248EEC93E06A
:1008E0000E94FC019C01332794E0359527959A9549
:1008F000E1F7F82E129FF00C11248EEC93E00E9489
:10090000FC019C01332744E0359527954A95E1F792
:10091000E82E129FE00C11248EEC93E00E94FC0163
:100920008EEC93E00E94FC019C01332754E0359546
:1009300027955A95E1F7D82E129FD00C11248EECF2
:1009400093E00E94FC019C01332764E035952795D4
:100950006A95E1F7C82E129FC00C11248EEC93E02B
:100960000E94FC019C01332774E0359527957A9508
:10097000E1F7129F800D11248883C982DA82EB820D
:10098000FC820D83CE01DF91CF911F910F91FF90DB
:10099000EF90DF90CF900895CF92DF92EF92FF9289
:1009A000CF93DF93EC01CB01BA01605873448D46BD
:1009B00098432CE3C22ED12CE12CF12CA7019601F7
:1009C0000E9403116D83CA01B901A70196010E941B
:1009D00003116C83CA01B90128E130E040E050E026
:1009E0000E9403116B831882E3E9FEEF8881482F90
:1009F000437091E009F090E06901E12CF12C492F5E
:100A000050E060E070E043595E4F6F4F7F4FC41677
:100A1000D506E606F70640F0AF01491B5109240F41
:100A2000351F8F5F8883E2CF81E089838981E82F3A
:100A3000F0E0E959FF4FE491992319F0823009F46D
:100A4000EF5FF0E02E173F0720F02E1B3F0B8F5F6C
:100A5000ECCF2F5F2A83DF91CF91FF90EF90DF9053
:100A6000CF9008951F920F920FB60F9211242F93DB
:100A70003F934F935F936F937F938F939F93AF9326
:100A8000BF93EF93FF938091B900887F803609F47C
:100A90009CC068F5883209F45BC090F4803109F499
:100AA00054C038F4882309F4F6C0883009F44DC0E6
:100AB000F6C0883109F44CC0803209F45DC0EFC043
:100AC000803409F468C048F4803309F455C0883391
:100AD00009F0E5C08093F102D8C0803509F44FC019
:100AE000883509F45DC0883409F0D9C0D6C088398A
:100AF00009F4C7C0A8F4883709F467C038F4883609
:100B000009F463C0803709F460C0C9C0883809F4AB
:100B1000B8C0803909F45FC0803809F0C0C05BC03C
:100B2000803B09F486C038F4803A09F466C0883AFC
:100B300009F47FC0B4C0803C09F4A7C0883C09F424
:100B4000A4C0883B09F48AC0AAC08091EE0210C0FC
:100B50009091F0028091EF02981770F5E091F00209
:100B600081E08E0F8093F002F0E0E253FD4F808130
:100B70008093BB0085EC86C08093F1028EC0E0912B
:100B8000F00281E08E0F8093F0028091BB00F0E0D4
:100B9000E253FD4F80839091F0028091EF026EC08E
:100BA000E091F00281E08E0F8093F0028091BB0013
:100BB000F0E0E253FD4F80838091030281116DC00C
:100BC00081E08093020284EA61C083E080930402A2
:100BD0001092AB02CFCF8091AB02803208F051C0AF
:100BE000E091AB0281E08E0F8093AB028091BB005D
:100BF000F0E0E557FD4F8083BDCF85EC8093BC00CE
:100C0000109204028091AB02803230F4E091AB028A
:100C1000F0E0E557FD4F10826091AB0270E0E0918B
:100C20008902F0918A028BE892E009951092AB025A
:100C300036C084E0809304021092880210928702EA
:100C4000E0918502F09186020995809187028111D9
:100C500005C081E08093870210926502E0918802CE
:100C600081E08E0F80938802F0E0EB59FD4F808188
:100C70008093BB009091880280918702981708F4B6
:100C800079CF85E88093BC000AC085EC8093BC00D6
:100C90001092040204C01092F1020E94BA01FF9166
:100CA000EF91BF91AF919F918F917F916F915F91E4
:100CB0004F913F912F910F900FBE0F901F9018955D
:100CC0008F929F92AF92BF92CF92DF92EF92FF925C
:100CD000CF93DF93A091EB03882311F03A2F01C04B
:100CE00030E08091EC0390E0880F991F84569F4F6D
:100CF000C090F103D090F203E090F303F090F4037E
:100D000040E050E0BA01FC01C591D49128812A232A
:100D100023130FC04A015B012FEF821A920AA20A25
:100D2000B20A4C155D056E057F0538F4B501A401C6
:100D3000EACF342F252FCB0104C030E020E080E043
:100D400090E0632F722FDF91CF91FF90EF90DF90B3
:100D5000CF90BF90AF909F908F900895CF92DF92E9
:100D6000EF92FF920F931F93CF93DF936C017A0161
:100D70008B01C0E0D0E0CE15DF0589F0D8016D9180
:100D80008D01D601ED91FC910190F081E02DC6011D
:100D90000995892B11F47E0102C02196ECCFC70181
:100DA000DF91CF911F910F91FF90EF90DF90CF9047
:100DB0000895CF92DF92EF92FF920F931F93CF93FC
:100DC000DF93CDB7DEB7C054D1400FB6F894DEBF85
:100DD0000FBECDBF0E945C030091ED031091EE03A6
:100DE0002091EF033091F0036B017C01C01AD10A0E
:100DF000E20AF30A40EDC41647E0D406E104F10428
:100E000018F48091F503BCC06093ED037093EE037A
:100E10008093EF039093F0031092E8031092E7039E
:100E20001092E6031092E5031092E40361E08091D2
:100E3000E9030E949A026AEF70E080E090E00E946D
:100E4000220361E08091E9030E94E60260E0809164
:100E5000E9030E949A0264E170E080E090E00E9461
:100E60002203F89461E08091E9030E949A028BE9E1
:100E700090E00197F1F762E08091E9030E94E602B9
:100E800083E290E00197F1F780E00E946006672B13
:100E9000682B692B21F41092F50378943EC081E011
:100EA0000E946006672B682B692BA9F38E010F5FE8
:100EB0001F4F6E018FEBC81A8EEFD80A780180E0C1
:100EC0000E946006F701608371838283938381E0CF
:100ED0000E946006F7016483758386839783F8E038
:100EE000EF0EF11CEC14FD0451F7789420E030E093
:100EF000F8014081518162817381C480D580E68090
:100F0000F780411551056105710529F0C114D1041F
:100F1000E104F10421F41092F50380E031C0F901FD
:100F200083E0F595E7958A95E1F7EC51FC4F8081D8
:100F3000880F4C155D056E057F0508F48160808380
:100F40002F5F3F4F085F1F4F2832310589F62091F0
:100F5000E80330E04091E4038091E50390E0840FE2
:100F6000911D4091E603840F911D4091E703840F8A
:100F7000911D99272817390771F681E08093F503B1
:100F8000C05CDE4F0FB6F894DEBF0FBECDBFDF9161
:100F9000CF911F910F91FF90EF90DF90CF90089528
:100FA000EFE2F3E0A089B18982E08C93A485B58556
:100FB0001C92A685B78580E18C93108EA489B58993
:100FC00086E08C93A289B3898C9180618C93A289ED
:100FD000B3898C9188608C93A289B3898C91806845
:100FE0008C930288F389E02D80818F7D8083089522
:100FF000FF920F931F93CF93DF93EBE1F3E0019008
:101000000020E9F73197BF016B517340FC0101905B
:101010000020E9F73197E81BF90B20E030E08F0161
:101020000150110926173707D4F4EC0140E050E0D5
:101030004E175F077CF4F990DA01A20FB31FA55E8B
:10104000BC4FAC91AF1106C04017510731F04F5F54
:101050005F4FEECF2F5F3F4FE5CFC90102C08FEF4B
:101060009FEFDF91CF911F910F91FF900895E09135
:101070002F03F09130030190F081E02D682F8FE273
:1010800093E00994CF92DF92EF92FF92CF930E9468
:10109000D9068823D1F18091EA038B3029F0A8F199
:1010A0008551823048F031C06091E60370E080E005
:1010B00090E00E94B80F2DC0C091E6036C2F6F77AF
:1010C00070E080E090E00E94BA0F20E030E040E85D
:1010D00053E40E9419106B017C018091E703682F93
:1010E00070E080E090E00E94BA0F9B01AC01C70164
:1010F000B6010E940E0F2DEC3CEC4CEC5DE30E941F
:101100001910C7FF06C0905804C060E070E080EC82
:101110009FE7CF91FF90EF90DF90CF9008956115FA
:10112000710579F0FB0101900020E9F73197AF01DB
:10113000461B570BDC01ED91FC910280F381E02D01
:10114000099480E090E00895CF93DF93BC018FE293
:1011500093E00E948F08EC0164E871E08FE293E075
:101160000E948F088C0F9D1FDF91CF910895AC01D5
:101170004F5F5F4F20910001309101012417350727
:1011800014F00C94E71084E391E00E94A40880E03E
:1011900008952091FC033091FD032F5F3F4F309362
:1011A000FD032093FC034091CC035091CD034115E6
:1011B000510519F0421753071CF48FED91E009C057
:1011C00020910001309101012817390734F484E39C
:1011D00091E00E94A40880E0089581E008958F9234
:1011E0009F92AF92BF92CF92DF92EF92FF920F93B6
:1011F0001F93CF93DF9300D01F92CDB7DEB77C0152
:101200007A8369836C0122E0C20ED11CC6010E9460
:10121000C908882311F1CE0101964C0100E010E0CD
:10122000C7010E94B708F40161914F0197012F5F38
:101230003F4F5901861761F0C9016B830E94C908AD
:101240006B81882319F0C7010E94F5100F5F1F4FB3
:101250007501AC14BD0421F702C000E010E081E08C
:10126000012B09F480E00F900F900F90DF91CF9148
:101270001F910F91FF90EF90DF90CF90BF90AF90B4
:101280009F908F900895EF92FF921F93CF93DF93DB
:10129000EC01162F7C018FEFE81AF80AC7010E94B3
:1012A000C908811103C020E030E012C0CE010E94C5
:1012B000B708811791F0C7010E94C908882321F05F
:1012C000612FCE010E94F51091E080E0292F382F88
:1012D00081E0232B21F480E002C090E0F6CFDF9183
:1012E000CF911F91FF90EF9008954F925F926F9270
:1012F0007F92EF92FF920F931F93CF93DF93CDB71F
:10130000DEB7A1970FB6F894DEBF0FBECDBF7C014C
:10131000FA01CB0119A2223008F42AE08E010F5DF8
:101320001F4F422E512C612C712CBF01A301920141
:101330000E940311F901CA01015011096A3014F425
:10134000605D01C0695CD8016C93232B242B252B95
:1013500061F7B801C7010E948F08A1960FB6F894F3
:10136000DEBF0FBECDBFDF91CF911F910F91FF90D8
:10137000EF907F906F905F904F900895CF93DF93A1
:10138000AC0160E070E02AE08FE293E00E94750912
:10139000EC0164E871E08FE293E00E948F088C0F0B
:1013A0009D1FDF91CF9108950C948F08CF93DF9309
:1013B00000D000D000D0CDB7DEB7789484B582607D
:1013C00084BD84B5816084BD85B5826085BD85B5E9
:1013D000816085BD80916E00816080936E00109267
:1013E00081008091810082608093810080918100E2
:1013F0008160809381008091800081608093800073
:101400008091B10084608093B1008091B0008160D0
:101410008093B00080917A00846080937A008091FC
:101420007A00826080937A0080917A008160809354
:101430007A0080917A00806880937A001092C100CF
:101440001092590210925A0210925B0210925C02A2
:1014500010922702109228021092290210922A025A
:1014600060ED77E080E090E00E9422038FE293E05D
:1014700090935802809357020E94D0070E945C0309
:1014800000912702109128022091290230912A020E
:10149000DC01CB01801B910BA20BB30BC297A10502
:1014A000B10538F463E070E080E090E00E94220330
:1014B000E5CF0E945C03609327027093280280931B
:1014C000290290932A0262E271E080915702909182
:1014D00058020E94D4096AE070E080E090E00E9427
:1014E000220311E010932B020E94D00784E690E0C3
:1014F000A0E0B0E08093330390933403A0933503CE
:10150000B09336031092080210920702109206025E
:10151000109205021092040210930302109202022C
:1015200061E082E10E949A0261E083E10E949A02F6
:101530008091B9008E7F8093B9008091B9008D7F32
:101540008093B90088E48093B80085E48093BC0060
:1015500062E08091E9030E94E60280E398EFAFEF3A
:10156000BFEF8093ED039093EE03A093EF03B0934E
:10157000F00320910B0230910C02809109029091AE
:101580000A022817390731F480E094E090930A02A8
:10159000809309028091090290910A0290930C02B3
:1015A00080930B02813094400CF00BC380E094E0F8
:1015B00090930101809300016CE070E082E293E07F
:1015C0000E94EF0864E670E080E090E00E94220351
:1015D0008091000190910101843293400CF0F6C299
:1015E00084E391E00E94A40880E090E090930E02D2
:1015F00080930D020E94BE09CE0101960E94B203A3
:1016000086E0FE013196A6EFB3E001900D928A9537
:10161000E1F78EE591E00E94A4083324339488EE2C
:10162000482E83E0582E96E0292E0E945C03672BFB
:10163000682B692B09F0CFC20E945C0362307105F0
:101640008105910508F0C7C23DC00E945C0360930C
:101650002702709328028093290290932A0264E65D
:1016600071E080915702909158020E94D4096CE673
:1016700071E080915702909158020E94D4090E9413
:101680005C03AB01BC012AE08091570290915802A3
:101690000E9475096EE671E08091570290915802A0
:1016A0000E94D40965E070E080E090E00E9422038F
:1016B0006AE070E080E090E00E94220380912B02BB
:1016C0008111E2C20E945C03009122021091230268
:1016D0002091240230912502DC01CB01801B910B6B
:1016E000A20BB30B803D9740A105B10508F4A4C03F
:1016F0000E945C0360932202709323028093240271
:10170000909325020E9442086B017C0160931E02A7
:1017100070931F0280932002909321020E9442083E
:1017200060931A0270931B0280931C0290931D0217
:10173000209116023091170240911802509119021F
:10174000C701B6010E940D0F4B015C0120E030E0A3
:10175000A9010E94A90F18165CF420E030E040E0D7
:1017600050E4C501B4010E94A90F87FF0BC01EC041
:1017700020E030E040E050ECC501B4010E94B30F1E
:101780001816A4F0C0921602D0921702E092180226
:10179000F0921902C701B6010E947A0F6093DA0332
:1017A0003092150287E891E00E94A408C0901A02C6
:1017B000D0901B02E0901C02F0901D0220911102BB
:1017C000309112024091130250911402C701B601E8
:1017D0000E940D0F4B015C0120E030E0A9010E9446
:1017E000A90F18165CF420E030E040E050E4C50199
:1017F000B4010E94A90F87FF0BC01EC020E030E09B
:1018000040E050ECC501B4010E94B30F1816A4F0DB
:10181000C0921102D0921202E0921302F0921402CE
:10182000C701B6010E947A0F6093DB033092150264
:1018300087E891E00E94A4088FE293E00E947F0174
:10184000181619060CF05DC10BE113E00E945C0351
:1018500060933703709338038093390390933A036E
:10186000E0912F03F09130030680F781E02D8FE2A5
:1018700093E0099597FD14C0D8018D938D01B3E0D5
:101880000F321B0719F783E991E00E94F807909344
:10189000100280930F028F3FEFEF9E07F9F409C10A
:1018A0000E945C03C0903703D0903803E090390366
:1018B000F0903A03DC01CB018C199D09AE09BF09F8
:1018C000C0903303D0903403E0903503F09036039A
:1018D0008C159D05AE05BF0518F2D5CFFC01E55E60
:1018E000FC4F2381022E000C330B205331098AE078
:1018F000829FA001839F500D11246480062C000C50
:10190000770820E3621A7108640E751E4581042E63
:10191000000C550B40535109849F9001859F300D59
:1019200011248680082C000C990890E3891A9108EC
:10193000820E931E2781022E000C330B2053310997
:10194000249DA001259D500D349D500D112420850E
:10195000022E000C330B20533109A4E6A29F500144
:10196000A39FB00C1124A40EB51E2185022E000CDD
:10197000330B20533109829FA001839F500D112406
:10198000A40EB51E2285022E000C330B2053310904
:10199000A20EB31E4485042E000C550B4053510972
:1019A000849F9001859F300D1124C5840C2C000C60
:1019B000DD08B0E3CB1AD108C20ED31E4785042E32
:1019C000000C550B40535109849F9001859F300DA9
:1019D0001124E0880E2C000CFF0890E3E91AF108AE
:1019E000E20EF31E4289042E000C550B40535109A0
:1019F000849F9001859F300D11240389002E000CD7
:101A0000110B00531109020F131FA30160E070E0D6
:101A10002AE08FE293E00E9475098DE20E94370868
:101A2000A40160E070E02AE08FE293E00E94750973
:101A30008DE20E943708C5010E94BE09A60160E040
:101A400070E02AE08FE293E00E9475098AE30E9429
:101A50003708A70160E070E02AE08FE293E00E947F
:101A600075098AE30E943708C8010E94BE09A0E2F6
:101A70006A167104B8F4BDE08B16910498F4E5E39E
:101A8000AE16E8E0BE0670F4F8E1CF16D10450F4CB
:101A90002CE3E216F10430F40C33110518F467E975
:101AA00071E002C06AE971E08FE293E00E94D4091C
:101AB00028C08DE991E00E94F8079093100280936E
:101AC0000F02019681F02AE048EC50E060E070E0FF
:101AD0008FE293E00E94750964E871E08FE293E081
:101AE0000E948F080EC087EA91E00E94F807909349
:101AF000100280930F02019621F08CEA91E00E947F
:101B0000A40880911502882309F458C01092150288
:101B1000CE0101960E94B203FE013196A6EFB3E01A
:101B2000822D01900D928A95E1F7E6EFF3E0AEED9C
:101B3000B3E0822D01900D928A95E1F780910D021C
:101B400090910E022AE0289F8001299F100D1124F8
:101B50006091E003C8010E9443096091DF03C8015E
:101B600001960E94430961E0C80102960E94430960
:101B70006091E103C80103960E9443096091E2036A
:101B8000C80104960E9443096091E303C8010596C9
:101B90000E9443096091DA03C80106960E94430936
:101BA0006091DB03C80107960E9443096091DC0342
:101BB0007091DD03C80108960E94EF080E948B0116
:101BC00034CD81EB91E00E94A408F6CC82E293E050
:101BD0000E94EF100BCD0E945C0360936102709332
:101BE0006202809363029093640200915D021091FF
:101BF0005E0220915F0230916002601771078207D8
:101C0000930740F460935D0270935E0280935F02DD
:101C10009093600200915D0210915E0220915F023C
:101C2000309160026B017C01C01AD10AE20AF30A0A
:101C3000970186010A3F11052105310508F442CDBF
:101C400060935D0270935E0280935F0290936002E6
:101C50000E945C0300912702109128022091290222
:101C600030912A02DC01CB01801B910BA20BB30B3C
:101C7000C297A105B10508F0E8CC63E070E080E010
:101C800090E00E942203E4CF809157029091580285
:101C9000DC01ED91FC910480F581E02D0995892B03
:101CA00099F38091570290915802DC01ED91FC91DB
:101CB0000480F581E02D0995181619060CF002CD67
:101CC0008091570290915802DC01ED91FC910680C1
:101CD000F781E02D099599278336910551F08637D4
:101CE000910509F4EFCC88359105D9F610922B02B5
:101CF000D8CF67E771E080915702909158020E9417
:101D0000D4092AE041E050E060E070E080915702A1
:101D1000909158020E9475096EE771E08091570218
:101D2000909158020E94D40962E370E080E090E054
:101D30000E942203C7CCEFE2F3E01382128288EE06
:101D400093E0A0E0B0E084839583A683B78326E088
:101D500031E03183208325EC30E03587248724EC83
:101D600030E03787268720EC30E0318B208B21EC68
:101D700030E0338B228B22EC30E0358B248B26EC49
:101D800030E0378B268B118E128E138E148E24E644
:101D900030E03093CD032093CC03EEECF3E01382DC
:101DA000128284839583A683B78386E191E0918331
:101DB000808340E050E0BA0186EF93E00E94CC04BB
:101DC000A4EEB3E082E015968C9315978BE01696FF
:101DD0008C931697ECEBF0E0E4911796EC93179741
:101DE000E8EAF0E0E4911896EC93189740E85EE397
:101DF00060E070E01D964D935D936D937C935097DA
:101E000040E050E0BA018EED93E00C94CC04EE0F6C
:101E1000FF1F0590F491E02D09945058BB27AA2785
:101E20000E94250F0C949D100E948F1038F00E9484
:101E3000961020F039F49F3F19F426F40C948C107E
:101E40000EF4E095E7FB0C948610E92F0E94AE108B
:101E500058F3BA17620773078407950720F079F4DF
:101E6000A6F50C94D0100EF4E0950B2EBA2FA02DF1
:101E70000B01B90190010C01CA01A0011124FF2737
:101E8000591B99F0593F50F4503E68F11A16F04032
:101E9000A22F232F342F4427585FF3CF4695379531
:101EA0002795A795F0405395C9F77EF41F16BA0BF6
:101EB000620B730B840BBAF09150A1F0FF0FBB1FA4
:101EC000661F771F881FC2F70EC0BA0F621F731FED
:101ED000841F48F4879577956795B795F7959E3F4A
:101EE00008F0B0CF9395880F08F09927EE0F9795DB
:101EF000879508950E94B61088F09F5798F0B92FE3
:101F00009927B751B0F0E1F0660F771F881F991F2E
:101F10001AF0BA95C9F714C0B13091F00E94D010F0
:101F2000B1E008950C94D010672F782F8827B85F00
:101F300039F0B93FCCF3869577956795B395D9F786
:101F40003EF490958095709561957F4F8F4F9F4F90
:101F500008950E94F50F08F48FEF089581E090E056
:101F6000F8940C9425110E94F50F08F481E008956F
:101F7000E89409C097FB3EF4909580957095619523
:101F80007F4F8F4F9F4F9923A9F0F92F96E9BB27D9
:101F90009395F695879577956795B795F111F8CF55
:101FA000FAF4BB0F11F460FF1BC06F5F7F4F8F4FC0
:101FB0009F4F16C0882311F096E911C0772321F0B6
:101FC0009EE8872F762F05C0662371F096E8862F4E
:101FD00070E060E02AF09A95660F771F881FDAF7A5
:101FE000880F9695879597F90895990F0008550FD2
:101FF000AA0BE0E8FEEF16161706E807F907C0F08F
:1020000012161306E407F50798F0621B730B840B96
:10201000950B39F40A2661F0232B242B252B21F470
:1020200008950A2609F4A140A6958FEF811D811D10
:1020300008950E942C100C949D100E948F1038F06F
:102040000E94961020F0952311F00C9486100C94A9
:102050008C1011240C94D1100E94AE1070F3959F37
:10206000C1F3950F50E0551F629FF001729FBB278F
:10207000F00DB11D639FAA27F00DB11DAA1F649F2B
:102080006627B00DA11D661F829F2227B00DA11DDE
:10209000621F739FB00DA11D621F839FA00D611D64
:1020A000221F749F3327A00D611D231F849F600D85
:1020B000211D822F762F6A2F11249F5750409AF0AE
:1020C000F1F088234AF0EE0FFF1FBB1F661F771F3A
:1020D000881F91505040A9F79E3F510580F00C9405
:1020E00086100C94D1105F3FE4F3983ED4F38695AC
:1020F00077956795B795F795E7959F5FC1F7FE2BA5
:10210000880F911D9695879597F9089597F99F6780
:1021100080E870E060E008959FEF80EC089500246F
:102120000A941616170618060906089500240A943C
:1021300012161306140605060895092E0394000CC2
:1021400011F4882352F0BB0F40F4BF2B11F460FF51
:1021500004C06F5F7F4F8F4F9F4F089557FD90587A
:10216000440F551F59F05F3F71F04795880F97FB5B
:10217000991F61F09F3F79F0879508951216130615
:102180001406551FF2CF4695F1DF08C01616170644
:102190001806991FF1CF8695710561050894089579
:1021A000E894BB2766277727CB0197F90895DC01D0
:1021B000CB01FC01F999FECF06C0F2BDE1BDF89A52
:1021C000319600B40D9241505040B8F70895F999F6
:1021D000FECF92BD81BDF89A992780B50895A8E1F8
:1021E000B0E042E050E00C94D910262FF999FECFD0
:1021F0001FBA92BD81BD20BD0FB6F894FA9AF99A24
:102200000FBE01960895A1E21A2EAA1BBB1BFD0169
:102210000DC0AA1FBB1FEE1FFF1FA217B307E407C5
:10222000F50720F0A21BB30BE40BF50B661F771F1D
:10223000881F991F1A9469F76095709580959095FD
:0E2240009B01AC01BD01CF010895F894FFCFC2
:10224E00000200000000BE00AE067F019200A60054
:10225E00050100000000480218021002FC01ED0109
:10226E00EC01564D4450565F317C315F564D445013
:10227E00560D0A00417474656D707420746F20776A
:10228E0072697465206F757473696465206F66205A
:10229E00454550524F4D206D656D6F727900426508
:1022AE0067696E00564D4450455F31007C005F56A5
:1022BE004D4450450D0A00564D4450435F005F5645
:1022CE004D4450430D0A0074656D70206469666656
:1022DE00657200643A20004F4B004E4F00733A2057
:1022EE006F666673657400743A20300044617461E1
:1022FE000043616E6E6F74206368616E6765206364
:10230E0065696C696E672C2062656C6F77206973E6
:10231E0073756564206164647265737365730045DB
:10232E0078636565646564206D6178696D756D208F
:10233E006E756D626572206F662077726974657353
:02234E0000008D
:00000001FF
