:100000000C9469000C9491000C9491000C94910054
:100010000C9491000C9491000C9491000C9491001C
:100020000C9491000C9491000C9491000C9491000C
:100030000C9491000C9491000C9491000C949100FC
:100040000C943F030C9491000C94C0070C949A07F5
:100050000C9491000C9491000C9491000C949100DC
:100060000C9432050C9491001F1C1F1E1F1E1F1F95
:100070001E1F1E1F00000000240027002A00000091
:100080000008000201000003040700000000000057
:1000900000000000000023002600290000000000EE
:1000A000250028002B0004040404040404040202B4
:1000B00002020202030303030303010204081020E7
:1000C0004080010204081020010204081020BC1323
:1000D000940C11241FBECFEFD8E0DEBFCDBF11E0DE
:1000E000A0E0B1E0ECEAF1E302C005900D92AE367B
:1000F000B107D9F723E0AEE6B1E001C01D92AD36FD
:10010000B207E1F710E0C8E6D0E004C02197FE0195
:100110000E942015C736D107C9F70E94A40C0C9481
:10012000C9180C940000FC01918D828D981761F024
:10013000828DDF01A80FB11D5D968C91928D9F5F1E
:100140009F73928F90E008958FEF9FEF0895FC01C9
:10015000918D828D981731F0828DE80FF11D858D7C
:1001600090E008958FEF9FEF0895FC01918D228D0F
:10017000892F90E0805C9F4F821B91098F73992794
:10018000089580E090E0892B29F00E94900781116A
:100190000C9400000895833081F028F4813099F0A8
:1001A0008230A1F008958730A9F08830B9F084300A
:1001B000D1F4809180008F7D03C0809180008F7783
:1001C00080938000089584B58F7702C084B58F7DB9
:1001D00084BD08958091B0008F7703C08091B000F6
:1001E0008F7D8093B000089585ED8093BC00809151
:1001F000BC0084FDFCCF10923F0208954091900115
:10020000262F30E0240F311D21323105DCF42091FE
:100210003F022430C9F4FC0180E090E0861758F4D6
:10022000309190012191DC01A259BE4FA30FB11D65
:100230002C930196F3CF80919001680F6093900109
:1002400080E0089581E0089582E008950895E091A6
:10025000DF018091DE01E81730F4F0E0EB54FE4F4F
:10026000808190E008958FEF9FEF08959091DF01D6
:100270008091DE01981750F4E92FF0E0EB54FE4F27
:10028000208130E09F5F9093DF0102C02FEF3FEFAE
:10029000C90108958091DE0190E02091DF01821B69
:1002A00091090895CF92DF92EF92FF920F931F93DF
:1002B000CF93DF937C01262F972F8A0180914002F4
:1002C000882391F0C62FD72F6E01C40ED51ECC15F2
:1002D000DD0571F06991D701ED91FC910190F081FC
:1002E000E02DC7010995F3CF642F822F0E94FE00F5
:1002F000C801DF91CF911F910F91FF90EF90DF9098
:10030000CF900895CF93DF931F92CDB7DEB7698367
:10031000209140022223D1F020916302203240F04C
:1003200021E030E0FC013383228380E090E015C0BF
:1003300080914102E82FF0E0EE5BFD4F99819083C0
:100340008F5F809341028093630205C061E0CE011C
:1003500001960E94FE0081E090E00F90DF91CF9126
:1003600008950E946D170C94D516FC01848DDF0151
:10037000A80FB11DA35ABF4F2C91848D90E0019618
:100380008F739927848FA689B7892C93A089B18907
:100390008C9180648C93938D848D981306C0028811
:1003A000F389E02D80818F7D80830895EF92FF9205
:1003B0000F931F93CF93DF93EC0181E0888F9B8D88
:1003C0008C8D981305C0E889F989808185FD24C04A
:1003D000F62E0B8D10E00F5F1F4F0F731127E02ECD
:1003E0008C8DE8120CC00FB607FCFACFE889F989AA
:1003F000808185FFF5CFCE010E94B501F1CF8B8DB5
:10040000FE01E80FF11DE35AFF4FF0820B8FEA89DE
:10041000FB898081806207C0EE89FF896083E8895B
:10042000F98980818064808381E090E0DF91CF91C1
:100430001F910F91FF90EF900895CF93DF93EC0100
:10044000888D8823C9F0EA89FB89808185FD05C0F4
:10045000A889B9898C9186FD0FC00FB607FCF5CF2E
:10046000808185FFF2CFA889B9898C9185FFEDCF76
:10047000CE010E94B501E7CFDF91CF910895CF93D0
:10048000DF93282F30E0F901E258FF4F8491F90102
:10049000E654FF4FD491F901EA55FF4FC491CC23A4
:1004A00091F081110E94CB00EC2FF0E0EE0FFF1FC6
:1004B000EE56FF4FA591B491EC91ED2381E090E0D1
:1004C00021F480E002C080E090E0DF91CF910895B8
:1004D0001F93CF93DF93282F30E0F901E258FF4FAD
:1004E0008491F901E654FF4FD491F901EA55FF4F89
:1004F000C491CC23C9F0162F81110E94CB00EC2FA0
:10050000F0E0EE0FFF1FE456FF4FA591B4918FB7B7
:10051000F894111105C09C91ED2FE095E92302C0DC
:10052000EC91ED2BEC938FBFDF91CF911F9108954C
:10053000CF93DF9390E0FC01E654FF4F2491FC0140
:10054000EA55FF4F8491882361F190E0880F991F4D
:10055000FC01EC58FF4FC591D491FC01E456FF4FCC
:10056000A591B491611109C09FB7F8948881209535
:1005700082238883EC912E230BC0623061F49FB7F5
:10058000F8943881822F809583238883EC912E2BD9
:100590002C939FBF06C08FB7F894E8812E2B288339
:1005A0008FBFDF91CF9108953FB7F8948091DA0122
:1005B0009091DB01A091DC01B091DD0126B5A89BF3
:1005C00005C02F3F19F00196A11DB11D3FBFBA2FE5
:1005D000A92F982F8827820F911DA11DB11DBC0145
:1005E000CD0142E0660F771F881F991F4A95D1F70A
:1005F00008958F929F92AF92BF92CF92DF92EF9227
:10060000FF926B017C010E94D4024B015C01C1147A
:10061000D104E104F104F1F00E94D402DC01CB0129
:1006200088199909AA09BB09883E9340A105B1051B
:1006300070F321E0C21AD108E108F10888EE880EB3
:1006400083E0981EA11CB11CC114D104E104F10483
:1006500019F7DDCFFF90EF90DF90CF90BF90AF9074
:100660009F908F9008952FB7F8946091D601709164
:10067000D7018091D8019091D9012FBF08951F9281
:100680000F920FB60F9211242F933F938F939F9346
:10069000AF93BF938091D6019091D701A091D801DB
:1006A000B091D9013091D50123E0230F2D3720F4EB
:1006B0000196A11DB11D05C026E8230F0296A11DBC
:1006C000B11D2093D5018093D6019093D701A093BB
:1006D000D801B093D9018091DA019091DB01A0910A
:1006E000DC01B091DD010196A11DB11D8093DA01FD
:1006F0009093DB01A093DC01B093DD01BF91AF913A
:100700009F918F913F912F910F900FBE0F901F904F
:100710001895CF92DF92EF92FF920F931F93CF9392
:10072000DF93EC0181E08093400288E680936202CF
:10073000109241021092630260E087E193E00E9410
:1007400082010E94C20A80913F028111FCCF81E0A8
:1007500080933F0280933E029FEF90933D02109260
:100760003C0296E090933B0280931A0280911A0219
:10077000806D80931A0280911902813061F4109289
:10078000190280911A028093BB008091BC0083FD06
:10079000F8CF85EC01C085EE8093BC0080913F02CC
:1007A0008130E1F380913C02873018F480913C0263
:1007B00001C087E0ABE1B2E025EB31E0F9019E2F0B
:1007C000921B981718F49D919193F9CF1092DF0125
:1007D0008093DE0187E193E00E9436018F77982FA6
:1007E00092959F701AEF082F919F000D112487E1B9
:1007F00093E00E9436019C01332794E035952795BC
:100800009A95E1F7F82E129FF00C112487E193E0FE
:100810000E9436019C01332744E0359527954A957F
:10082000E1F7E82E129FE00C112487E193E00E948B
:10083000360187E193E00E9436019C01332754E0A2
:10084000359527955A95E1F7D82E129FD00C112493
:1008500087E193E00E9436019C01332764E03595DF
:1008600027956A95E1F7C82E129FC00C112487E1E5
:1008700093E00E9436019C01332774E0359527955B
:100880007A95E1F7129F800D11248883C982DA825C
:10089000EB82FC820D83CE01DF91CF911F910F91EE
:1008A000FF90EF90DF90CF900895CF92DF92EF927C
:1008B000FF92CF93DF93EC01CB01BA0160587344F0
:1008C0008D4698432CE3C22ED12CE12CF12CA701AC
:1008D00096010E94DF146D83CA01B901A701960138
:1008E0000E94DF146C83CA01B90128E130E040E0C6
:1008F00050E00E94DF146B831882E3E9FEEF8881E9
:10090000482F437091E009F090E06901E12CF12C4F
:10091000492F50E060E070E043595E4F6F4F7F4FCA
:10092000C416D506E606F70640F0AF01491B51098B
:10093000240F351F8F5F8883E2CF81E0898389810F
:10094000E82FF0E0E959FF4FE491992319F0823044
:1009500009F4EF5FF0E02E173F0720F02E1B3F0B4E
:100960008F5FECCF2F5F2A83DF91CF91FF90EF90C5
:10097000DF90CF900895CF92DF92FF920F931F9355
:10098000CF93DF93EC018B810E943F02892BD9F733
:100990006A818B810E941F0B082F6A818B810E94C4
:1009A0001F0B182F6A818B810E941F0BF82EC12C00
:1009B000D12C8C8190E0C816D90660F461E08A8160
:1009C0000E94680260E08A810E9468028FEFC81A64
:1009D000D80AEFCF302F3095612F60954F2D40957D
:1009E00037FD0AC03F3751F46F3F41F421E04F3FDC
:1009F00009F020E0219503C02FEF01C020E0862FF1
:100A000090E0A0E0B0E0BA2FA92F982F8827A32B61
:100A1000842BB22BBC01CD0160957095809590958B
:100A2000DF91CF911F910F91FF90DF90CF900895AC
:100A300008950F931F93CF93DF93EC018B010E94D6
:100A4000AD18F8016081861731F0CE010E94BB1805
:100A500081E090E002C080E090E0DF91CF911F91B3
:100A60000F9108951F920F920FB60F9211242F939A
:100A70003F934F935F936F937F938F939F93AF9326
:100A8000BF93EF93FF938091B900887F803609F47C
:100A90009CC068F5883209F45BC090F4803109F499
:100AA00054C038F4882309F4F6C0883009F44DC0E6
:100AB000F6C0883109F44CC0803209F45DC0EFC043
:100AC000803409F468C048F4803309F455C0883391
:100AD00009F0E5C080933D02D8C0803509F44FC0CD
:100AE000883509F45DC0883409F0D9C0D6C088398A
:100AF00009F4C7C0A8F4883709F467C038F4883609
:100B000009F463C0803709F460C0C9C0883809F4AB
:100B1000B8C0803909F45FC0803809F0C0C05BC03C
:100B2000803B09F486C038F4803A09F466C0883AFC
:100B300009F47FC0B4C0803C09F4A7C0883C09F424
:100B4000A4C0883B09F48AC0AAC080911A0210C0D0
:100B500090913C0280913B02981770F5E0913C0225
:100B600081E08E0F80933C02F0E0E55EFD4F8081D6
:100B70008093BB0085EC86C080933D028EC0E091DF
:100B80003C0281E08E0F80933C028091BB00F0E03C
:100B9000E55EFD4F808390913C0280913B026EC0E8
:100BA000E0913C0281E08E0F80933C028091BB007B
:100BB000F0E0E55EFD4F808380913E0281116DC0C3
:100BC00081E08093190284EA61C083E080933F0250
:100BD0001092B401CFCF8091B401803208F051C09F
:100BE000E091B40181E08E0F8093B4018091BB004D
:100BF000F0E0EC56FE4F8083BDCF85EC8093BC00C7
:100C000010923F028091B401803230F4E091B4013F
:100C1000F0E0EC56FE4F10826091B40170E0E0917C
:100C20009201F091930184E991E009951092B40149
:100C300036C084E080933F0210929101109290019F
:100C4000E0918E01F0918F010995809190018111C1
:100C500005C081E08093900110926E01E0919101B6
:100C600081E08E0F80939101F0E0E259FE4F808188
:100C70008093BB009091910180919001981708F4A6
:100C800079CF85E88093BC000AC085EC8093BC00D6
:100C900010923F0204C010923D020E94F400FF91A6
:100CA000EF91BF91AF919F918F917F916F915F91E4
:100CB0004F913F912F910F900FBE0F901F9018955D
:100CC000CF92DF92EF92FF92CF93DF93C42ED12C7D
:100CD000E12CF12CD62AE82AC0E0D0E08091310343
:100CE00090913203C817D90738F4B701A601CE0195
:100CF0000E94FC092196F2CF80913703909138032E
:100D0000892B41F0DF91CF91FF90EF90DF90CF9052
:100D10000C944409DF91CF91FF90EF90DF90CF903A
:100D200008952F923F924F925F926F927F928F928F
:100D30009F92AF92BF92CF92DF92EF92FF920F936A
:100D40001F93CF93DF93CDB7DEB762970FB6F894BA
:100D5000DEBF0FBECDBF4C0140E050E0BA01CE0176
:100D600007960E94550406E010E0C12CD12C5E01CC
:100D70008DE0A80EB11C3E01E3E16E0E711C8AEFFE
:100D80009FEF7C01EA18FB08C814D90409F4ADC030
:100D900015012701400E511EC101840D951D0E94B1
:100DA000AD18F10181931F01E615F705A9F7C801F8
:100DB0000E94AD18482EC80101960E94AD18582E09
:100DC000C80102960E94B5183A89498958892D852B
:100DD0006E857F857F83688729875A874B873C8705
:100DE00049825A82A0E0B0E08B839C83AD83BE83AE
:100DF0002A3010F40E943E09698570E080E090E09E
:100E00004AE00E94F20888858A3010F40E943E0968
:100E1000688570E080E090E04AE00E94F2086F810F
:100E200070E06053784F072E000C880B990B4AE056
:100E30000E94F20880E20E9433098A858A3010F409
:100E40000E943E096A8570E080E090E04AE00E94DE
:100E5000F2088AE30E9433098B858A3010F40E94DD
:100E60003E096B8570E080E090E04AE00E94F20865
:100E70008AE30E9433098C858A3010F40E943E096F
:100E80006C8570E080E090E04AE00E94F20883E226
:100E90000E9433096B817C818D819E814AE00E9492
:100EA000F20883E20E943309698170E080E090E0FB
:100EB0004AE00E94F20883E20E9433096A8170E0EE
:100EC00080E090E04AE00E94F20887E691E00E940C
:100ED000D00862E370E080E090E00E94F902FFEF4A
:100EE000CF1ADF0A065F1F4F4FCF0E94E2086296BB
:100EF0000FB6F894DEBF0FBECDBFDF91CF911F912B
:100F00000F91FF90EF90DF90CF90BF90AF909F90A8
:100F10008F907F906F905F904F903F902F900895AB
:100F200088E792E00E94B50021E0892B09F420E0D7
:100F3000822F08951F920F920FB60F9211242F93B4
:100F40003F934F935F936F937F938F939F93AF9351
:100F5000BF93EF93FF9388E792E00E94B501FF9162
:100F6000EF91BF91AF919F918F917F916F915F9121
:100F70004F913F912F910F900FBE0F901F9018959A
:100F80001F920F920FB60F9211242F938F939F935E
:100F9000EF93FF93E0918802F09189028081E091C4
:100FA0008E02F0918F0282FD12C090818091910299
:100FB0008F5F8F7320919202821751F0E09191021E
:100FC000F0E0E858FD4F958F8093910201C0808139
:100FD000FF91EF919F918F912F910F900FBE0F90E6
:100FE0001F9018958F929F92AF92BF92CF92DF92EF
:100FF000EF92FF92CF93DF93A0915803882311F0D3
:101000003A2F01C030E08091590390E0880F991F7A
:101010008E569F4FC0905E03D0905F03E0906003B8
:10102000F090610340E050E0BA01FC01C591D49119
:1010300028812A2323130FC04A015B012FEF821A54
:10104000920AA20AB20A4C155D056E057F0538F4B6
:10105000B501A401EACF342F252FCB0104C030E025
:1010600020E080E090E0632F722FDF91CF91FF901E
:10107000EF90DF90CF90BF90AF909F908F900895AA
:10108000FF920F931F93CF93DF93E4E6F2E001907A
:101090000020E9F73197BF0164567240FC010190CE
:1010A0000020E9F73197E81BF90B20E030E08F01D1
:1010B0000150110926173707D4F4EC0140E050E045
:1010C0004E175F077CF4F990DA01A20FB31FAC59F9
:1010D000BD4FAC91AF1106C04017510731F04F5FC3
:1010E0005F4FEECF2F5F3F4FE5CFC90102C08FEFBB
:1010F0009FEFDF91CF911F910F91FF900895AF92D5
:10110000BF92CF92DF92EF92FF920F931F93CF93F4
:10111000DF9300D0CDB7DEB78C017A836983CE012F
:1011200001966C01580192E0A90EB11CE12CF12C42
:10113000C8010E94AD18F60161916F01861731F068
:10114000C8010E94BB18FFEFEF1AFF0A0F5F1F4F85
:101150000A151B0569F781E0EF2809F480E00F907C
:101160000F90DF91CF911F910F91FF90EF90DF9043
:10117000CF90BF90AF900895CF93DF931F92CDB7DC
:10118000DEB76983BE016F5F7F4F0E94190521E0C2
:10119000892B09F420E0822F0F90DF91CF910895E1
:1011A000009769F0FC0101900020E9F73197AF0149
:1011B000481B590BBC0188E792E00C94690C80E055
:1011C00090E00895CF93DF938AE691E00E94D008E3
:1011D000EC0187E691E00E94D0088C0F9D1FDF9103
:1011E000CF9108958F929F92AF92BF920F931F93CA
:1011F000CF93DF93CDB7DEB7A1970FB6F894DEBFDC
:101200000FBECDBF19A2423008F44AE08E010F5D37
:101210001F4F842E912CA12CB12CA50194010E946A
:10122000DF14E62FB901CA0101501109EA3014F4A4
:10123000E05D01C0E95CD801EC93232B242B252B26
:1012400061F7C8010E94D008A1960FB6F894DEBFDE
:101250000FBECDBFDF91CF911F910F91BF90AF9087
:101260009F908F900895E0917802F091790201901B
:10127000F081E02D682F88E792E009944AE060E071
:1012800070E0CB010C94F2080F931F93CF93DF9380
:10129000CDB7DEB729970FB6F894DEBF0FBECDBF2E
:1012A0000E94D40200913D0310913E0320913F0320
:1012B00030914003DC01CB01801B910BA20BB30BDF
:1012C000C297A105B10560F3F89480913303909122
:1012D00034039A838983E0913703F0913803DF0167
:1012E00011968081898790912F03E0914103F091BD
:1012F000420380914303992309F42EC09081982BD7
:1013000098879081809589238F838F818C8388E053
:101310008B8358856F8149853B812C8189819A8196
:10132000508347FD252F3A952083262F39F0441FFF
:1013300000C000006083000000C0F2CF38E04D9193
:1013400060830000019761F7F0934203E09341034B
:1013500049873B832C8338C09081982B9887908154
:10136000809589238F838F818E8388E08D83588534
:101370006F8149853D812E8189819A81508347FD06
:10138000252F00C000C0208300C000C000C000C0E6
:1013900000C060830000262F3A9541F0441F0000F2
:1013A00000C000C000C000C000C0E8CF38E04D91D0
:1013B00000C0608300C0019709F7F0934203E093F7
:1013C000410349873D832E839A83898378940E94C1
:1013D000D40260933D0370933E0380933F03909348
:1013E000400329960FB6F894DEBF0FBECDBFDF9144
:1013F000CF911F910F9108958F929F92AF92BF92BC
:10140000CF92DF92EF92FF924B01AA24BB24E82DEA
:10141000C52ED62EE72EFF24FC2D342F2091360327
:10142000222361F0829E40011124E92DC29E6001B9
:101430001124FD2D429FD00111243B2FF0903C033D
:10144000E0903903A0913703B0913803FE1008C033
:10145000AC01440F551F840F951F8A0F9B1F14C0AA
:10146000880F991F880F991F8A0F9B1F472F552799
:1014700066277727DC01AF0DB11D222321F0429FA3
:10148000A0011124452F4C9320913903DC01A20FB8
:10149000B11DEC9320913A03DC01A20FB11DFC9326
:1014A00020913B03FC01E20FF11D3083FF90EF9090
:1014B000DF90CF90BF90AF909F908F900895EF9264
:1014C000FF920F931F93CF93DF9300E010E0E12C86
:1014D000F12CC0E0D0E06091310370913203C61767
:1014E000D70770F5C7010E94CB14600F6095653572
:1014F00058F4462F440F640F862F8095462F50E0F6
:1015000060E070E0682B38C06A3A58F46555962F51
:10151000990F960F492F409550E060E070E0592BED
:101520002BC06A5A462F440F640F862F8095462F92
:1015300050E060E070E0BA0155274427582B1CC0EA
:101540008091370390913803892B11F00E94440950
:1015500064E170E080E090E00E94F9020F5F1F4FAD
:10156000011582E0180709F0B2CFDF91CF911F91EA
:101570000F91FF90EF900895CE010E94FC092196F3
:10158000F394A9CF2091630290916202213208F076
:101590004AC080913F028111FCCF32E030933F027C
:1015A00031E030933E023FEF30933D0210923C0217
:1015B00020933B02A2E4B2E04BE152E0FA013E2F5D
:1015C000341B321718F43D913193F9CF10921A025F
:1015D00020911A02990F922B90931A02909119025E
:1015E000913061F41092190290911A029093BB000D
:1015F0009091BC0093FDF8CF95EC01C095EE9093CF
:10160000BC0090913F029230E1F390913D029F3FE8
:1016100079F080913D02803241F080913D0280332B
:1016200031F084E005C081E003C082E001C083E0C6
:101630001092410210926302109240020895FF92AC
:101640000F931F93CF93DF93F82E062FC7E0D0E0C0
:1016500010E061E0802F0E9468028F2D0E943F02FF
:101660000C2E01C0880F0A94EAF7182B60E0802F37
:101670000E946802219768F7812FDF91CF911F9117
:101680000F91FF900895CF92DF92EF92FF92CF9348
:10169000CAE0C12CD12C760184E493E00E94BB0403
:1016A000C60ED71EE81EF91EC150B1F7C701B6011C
:1016B0002AE030E040E050E00E940115CA01B90183
:1016C0000E9480170E9405166093490370934A0395
:1016D00080934B0390934C03CF91FF90EF90DF905A
:1016E000CF900895CF92DF92EF92FF920F931F93C6
:1016F000CF93DF93CDB7DEB7C054D1400FB6F89487
:10170000DEBF0FBECDBF0E94330300915A0310917C
:101710005B0320915C0330915D036B017C01C01A77
:10172000D10AE20AF30A40EDC41647E0D406E10408
:10173000F10418F480916203BCC060935A03709363
:101740005B0380935C0390935D03109255031092AA
:10175000540310925303109252031092510361E00C
:10176000809156030E9468026AEF70E080E090E08A
:101770000E94F90261E0809156030E94980260E0A5
:10178000809156030E94680264E170E080E090E07E
:101790000E94F902F89461E0809156030E94680269
:1017A0008BE990E00197F1F762E0809156030E9487
:1017B000980283E290E00197F1F780E00E94F2073F
:1017C000672B682B692B21F41092620378943EC03A
:1017D00081E00E94F207672B682B692BA9F38E0129
:1017E0000F5F1F4F6E018FEBC81A8EEFD80A78017A
:1017F00080E00E94F207F701608371838283938304
:1018000081E00E94F207F7016483758386839783E2
:10181000F8E0EF0EF11CEC14FD0451F7789420E091
:1018200030E0F8014081518162817381C480D580AC
:10183000E680F780411551056105710529F0C11455
:10184000D104E104F10421F41092620380E031C07C
:10185000F90183E0F595E7958A95E1F7EF5AFC4F9A
:101860008081880F4C155D056E057F0508F4816049
:1018700080832F5F3F4F085F1F4F2832310589F665
:101880002091550330E0409151038091520390E044
:10189000840F911D40915303840F911D4091540377
:1018A000840F911D99272817390771F681E08093DD
:1018B0006203C05CDE4F0FB6F894DEBF0FBECDBF33
:1018C000DF91CF911F910F91FF90EF90DF90CF901C
:1018D0000895CF92DF92EF92FF920F931F93CF93D1
:1018E000DF936C017A018B01C0E0D0E0CE15DF05FB
:1018F00089F0D8016D918D01D601ED91FC91019097
:10190000F081E02DC6010995892B11F47E0102C0FA
:101910002196ECCFC701DF91CF911F910F91FF90DE
:10192000EF90DF90CF900895809137039091380326
:10193000009711F00E94D5168091350387FD03C0F2
:1019400060E00C9498020895CF93DF93CDB7DEB793
:1019500061970FB6F894DEBF0FBECDBF789484B503
:10196000826084BD84B5816084BD85B5826085BD9B
:1019700085B5816085BD80916E00816080936E0029
:10198000109281008091810082608093810080911B
:1019900081008160809381008091800081608093CC
:1019A00080008091B10084608093B1008091B0008C
:1019B00081608093B00080917A00846080937A0087
:1019C00080917A00826080937A0080917A008160B1
:1019D00080937A0080917A00806880937A001092D8
:1019E000C100E0918802F091890282E08083E09159
:1019F0008402F09185021082E0918602F0918702C4
:101A000080E1808310929002E0918C02F0918D022F
:101A100086E08083E0918A02F0918B028081806170
:101A20008083E0918A02F0918B02808188608083BC
:101A3000E0918A02F0918B02808180688083E0913E
:101A40008A02F0918B0280818F7D808384E690E012
:101A5000A0E0B0E080937C0290937D02A0937E0290
:101A6000B0937F0260E084E00E9498021092DF0150
:101A70001092DE01109241021092630210923F0216
:101A800081E080933E021092190261E082E10E949F
:101A9000680261E083E10E9468028091B9008E7F54
:101AA0008093B9008091B9008D7F8093B90088E45C
:101AB0008093B80085E48093BC0062E08091560377
:101AC0000E94980280E398EFAFEFBFEF80935A0334
:101AD00090935B03A0935C03B0935D038091350307
:101AE00087FD08C061E00E94980260E080913503A4
:101AF0000E94680281E0809330034091330350914B
:101B0000340360E070E080913703909138030E94C5
:101B100072170E945F0A2091E2013091E3018091E7
:101B2000E0019091E1012817390731F480E094E059
:101B30009093E1018093E0018091E0019091E101B7
:101B40009093E3018093E2018130944034F480E08B
:101B500094E090930101809300018EEF93E00E9446
:101B6000AD18809312028FEF93E00E94AD1880931E
:101B70000B02823080F010920B021A86BE01665F63
:101B80007F4F8FEF93E00E94190521E0892B09F424
:101B900020E020930B0280911202843038F01092E2
:101BA000120260E08EEF93E00E94BC088091120266
:101BB000811103C040E060E010C0813021F440E0BA
:101BC00060E08FEF0AC0823019F440E06FEF04C08C
:101BD000833029F44FEF60E080E00E9460068CE5DE
:101BE00097E6ADEBB4E480934D0390934E03A0933E
:101BF0004F03B09350038CEF93E00E94B51890937D
:101C00000D0280930C028536910550F010920D0262
:101C100010920C0260E070E08CEF93E00E947F086D
:101C20000E94430BCE0101960E94890386E0FE01CB
:101C30003196A3E6B3E001900D928A95E1F7EE2488
:101C4000E3942AE0F22E84E00E943F02019789F497
:101C500080911802811119C00E943303609314020D
:101C6000709315028093160290931702E092180267
:101C70000CC0109218020E943303609314027093F8
:101C8000150280931602909317020E94330300916D
:101C90001402109115022091160230911702DC01F6
:101CA000CB01801B910BA20BB30B883E9340A10587
:101CB000B10520F080911802811151C58091130265
:101CC000882309F468C0109213020E94430B0E94FB
:101CD0005F0A40E060E080E00E946006109212021D
:101CE00060E08EEF93E00E94BC081AE0812C912CFA
:101CF000540184E493E00E94BB04860E971EA81E44
:101D0000B91E1150B1F7C501B4012AE030E040E03E
:101D100050E00E9401158091490390914A03A091DF
:101D20004B03B0914C0359016A01A81AB90ACA0AB7
:101D3000DB0AC601B5010E94801720914D03309146
:101D40004E0340914F03509150030E9493150E94FF
:101D50000C1660930E0270930F0280931002909302
:101D6000110210920D0210920C0260E070E08CEFF4
:101D700093E00E947F0810920B021986BE01675FF4
:101D80007F4F8FEF93E00E94190521E0892B09F422
:101D900020E020930B0280911202882331F10E94EF
:101DA000330300910702109108022091090230913B
:101DB0000A02DC01CB01801B910BA20BB30B88380C
:101DC0009341A105B10588F00E9433036093070297
:101DD000709308028093090290930A0240E060E049
:101DE00080E00E946006109212020E94330300916C
:101DF0000302109104022091050230910602DC01D9
:101E0000CB01801B910BA20BB30B803D9740A1052A
:101E1000B10508F41CC10E94330360930302709360
:101E2000040280930502909306020E94720B88239D
:101E300009F440C0809157038B3029F0D8F18551C7
:101E4000823058F037C06091530370E080E090E03A
:101E50000E947E174B015C0133C010915303612F28
:101E60006F7770E080E090E00E94801720E030E023
:101E700040E853E40E94DF174B015C01609154037A
:101E800070E080E090E00E9480179B01AC01C501EA
:101E9000B4010E9427152DEC3CEC4CEC5DE30E9454
:101EA000DF174B015C0117FF0BC0B7FAB094B7F80E
:101EB000B09406C0812C912C90ECA92E9FE7B92EEE
:101EC0008092FF0190920002A0920102B092020261
:101ED0000E94720B8823A9F1809157038B3039F14E
:101EE00080F18551823068F56091510370E080E0A7
:101EF00090E00E947E1720E030E040E853E40E942A
:101F0000DF172B013C016091520370E080E090E00C
:101F10000E9480179B01AC01C301B2010E942715EA
:101F20002DEC3CEC4CEC5DE30E94DF1707C06091A8
:101F3000510370E080E090E00E947E172B013C018D
:101F400006C0412C512C80EC682E8FE7782E4092F1
:101F5000FB015092FC016092FD017092FE01209104
:101F6000F7013091F8014091F9015091FA01C50152
:101F7000B4010E9426156B877C878D879E8720E0A1
:101F800030E0A9010E943B1618166CF420E030E006
:101F900040E450E46B857C858D859E850E943B16D0
:101FA00087FF0DC01CC020E030E040E450EC6B85A2
:101FB0007C858D859E850E947917181684F0809205
:101FC000F7019092F801A092F901B092FA01C501CF
:101FD000B4010E940C1660932303E092F601209155
:101FE000F2013091F3014091F4015091F501C301E8
:101FF000B2010E9426154B015C0120E030E0A901EE
:102000000E943B1618165CF420E030E040E450E4F7
:10201000C501B4010E943B1687FF0BC018C020E029
:1020200030E040E450ECC501B4010E947917181665
:1020300074F04092F2015092F3016092F4017092B8
:10204000F501C301B2010E940C16609324030E94A3
:1020500033030091EE011091EF012091F0013091D6
:10206000F101DC01CB01801B910BA20BB30B883E6D
:102070009340A105B10508F498C00E943303609312
:10208000EE017093EF018093F0019093F1011AE05B
:10209000812C912C540184E493E00E94BB04860EB1
:1020A000971EA81EB91E1150B1F7C501B4012AE050
:1020B00030E040E050E00E9401158091490390918A
:1020C0004A03A0914B03B0914C0359016A01A81A2D
:1020D000B90ACA0ADB0AC601B5010E94801720911D
:1020E0004D0330914E0340914F03509150030E9495
:1020F00093154B015C016093EA017093EB018093AF
:10210000EC019093ED012091E6013091E7014091BF
:10211000E8015091E9010E9426152B013C0120E0C5
:1021200030E0A9010E943B1618165CF420E030E074
:1021300048EC52E4C301B2010E943B1687FF0BC07A
:1021400034C020E030E048EC52ECC301B2010E9400
:102150007917181654F18092E6019092E701A09247
:10216000E801B092E90120E030E0A901C501B40125
:102170000E943B1620E030E040E05FE387FD05C0B1
:10218000C501B4010E94271504C0C501B4010E9415
:1021900026150E94051660932503709326038093ED
:1021A000270390932803E092F60188E792E00E94CB
:1021B000B500181619060CF049C204E612E00E9498
:1021C0003303609380027093810280938202909324
:1021D0008302E0917802F09179020680F781E02D88
:1021E00088E792E0099597FD14C0F80181938F016B
:1021F000F2E008371F0719F780E391E00E944008DA
:102200009093E5018093E4018F3F2FEF9207F9F45B
:1022100059C10E9433038090800290908102A09067
:102220008202B0908302DC01CB0188199909AA09C6
:10223000BB0980907C0290907D02A0907E02B090BD
:102240007F0288159905AA05BB0518F2D5CFFC01B8
:10225000EC59FD4F8381082E000C990BC097F89E16
:10226000B001F99E700D1124A4800A2C000CBB084B
:1022700080E3A81AB108A60EB71E6580C6808780C5
:10228000A085818572855485458537852089928909
:102290005388E0E2AE16B10408F00FC1062C000C22
:1022A0007708F0E36F1A7108F69C8001F79C100D17
:1022B00011240C2C000CDD0860E3C61AD108C00EF6
:1022C000D11EEDE0CE16D10408F0F7C0082C000CAA
:1022D0009908F0E38F1A9108E8EEF3E08E9E8001F2
:1022E0008F9E100D9E9E100D11240A2E000CBB0B0C
:1022F000D097F4E6FA9F4001FB9F900C1124080D43
:10230000191DE82F880FFF0BF097FE9ED001FF9E4E
:10231000B00D1124A00FB11F072F770F110B005321
:1023200011090A0F1B1F053368E0160708F0C5C026
:10233000E52F550FFF0BF097FE9EB001FF9E700D2D
:102340001124042E000C550B405351094B01840EEF
:10235000951E88E18816910408F0AFC0432F330F13
:10236000550B40535109F49EB001F59E700D112498
:10237000022E000C330B205331093B01620E731EF9
:10238000ECE36E16710408F098C0892F990F990B31
:10239000C097F89EB001F99E700D1124452C550C84
:1023A0005508F0E34F1A5108460E571E2CE342160B
:1023B000510408F082C0442D362D282D2A2C3C2CA7
:1023C000003D67E0160710F0005D174000936303BF
:1023D000C0926403A09265038092660360926703D3
:1023E00040926803E092400288E680936202109275
:1023F00041021092630260E087E193E0298B388B01
:102400004F870E9482014F85842F6F2D0E94BF1439
:10241000682F660F680F660F640D87E193E00E94D6
:1024200082013889832F6F2D0E94BF14682F660F99
:10243000680F660F660D87E193E00E94820129898B
:10244000822F6F2D0E94BF14682F660F680F660FD2
:10245000680D87E193E00E94820160E087E193E0EC
:102460000E948201822D6F2D0E94BF14682F660F7B
:10247000680F660F6A0D87E193E00E948201832D49
:102480006F2D0E94BF14682F660F680F660F6C0DCA
:1024900087E193E00E948201802F6F2D0E94BF147C
:1024A000682F660F860F880F682F600F87E193E013
:1024B0000E9482010E94C20A9EC087E391E00E94AE
:1024C000D0081BC08AE391E00E9440089093E50188
:1024D0008093E4010196A1F060910E0270910F02C9
:1024E00080911002909111024AE00E94F20864E685
:1024F00070E080E090E00E94F9020E94E208A6C02D
:1025000084E491E00E9440089093E5018093E40107
:102510000196A9F080910C0290910D0282309105F4
:1025200058F020910B02211102C0019702C084E6ED
:1025300090E00E9491068AC080E090E0FACF89E4A2
:1025400091E00E9440089093E5018093E401019698
:1025500099F040E060E08FEF0E946006E092120286
:102560000E9433036093070270930802809309026C
:1025700090930A0261E03BC08EE491E00E94400823
:102580009093E5018093E4010196A1F040E06FEFA4
:1025900080E00E94600682E0809312020E94330372
:1025A00060930702709308028093090290930A02D5
:1025B00062E01DC083E591E00E9440089093E50130
:1025C0008093E4010196D1F04FEF60E080E00E943B
:1025D0006006F3E0F09312020E9433036093070257
:1025E000709308028093090290930A0263E08EEFD1
:1025F00093E00E94BC0884E391E061CF88E591E01C
:102600000E9440089093E5018093E4010196F1F067
:1026100010920D0210920C0260E070E08CEF93E0DB
:102620000E947F0810920B021886BE01685F7F4FE0
:102630008FEF93E00E94190521E0892B09F420E037
:1026400020930B0282E691E00E94D0088091F6016F
:10265000882309F481C01092F601CE0101960E94F0
:10266000890386E0FE013196A3E6B3E001900D9266
:102670008A95E1F786E0E3E6F3E0A9E2B3E00190B2
:102680000D928A95E1F780910C0290910D02F89ECF
:102690008001F99E100D112460912B03C8010E9446
:1026A000BC0860912A03C80101960E94BC08609191
:1026B0002903C80102960E94BC0860912C03C8013E
:1026C00003960E94BC0860912D03C80104960E94E5
:1026D000BC0860912E03C80105960E94BC08609159
:1026E0002303C80106960E94BC0860912403C80118
:1026F00007960E94BC086091250370912603C801CB
:1027000008960E947F0880910C0290910D0201961C
:102710008536910528F490930D0280930C0214C025
:1027200010920D0210920C02E0920B02EF82BE0199
:10273000695F7F4F8FEF93E00E94190521E0892B9D
:1027400009F420E020930B0260910C0270910D02BD
:102750008CEF93E00E947F080E94C10074CAE0924F
:1027600013020E9433036093140270931502809346
:10277000160290931702A2CACF93DF9310927B02A6
:1027800010927A0288EE93E0A0E0B0E080937C02A1
:1027900090937D02A0937E02B0937F022CE031E003
:1027A000309379022093780225EC30E03093850253
:1027B0002093840224EC30E0309387022093860239
:1027C00020EC30E0309389022093880221EC30E045
:1027D00030938B0220938A0222EC30E030938D02FA
:1027E00020938C0226EC30E030938F0220938E02EF
:1027F00010929102109292021092930210929402FF
:1028000024E630E0309316032093150310921A0348
:102810001092190380931B0390931C03A0931D0334
:10282000B0931E038CE191E09093180380931703FB
:1028300040E050E0BA0183E693E00E945504D2E004
:10284000D09356038BE080935703ECEBF0E0E491D8
:10285000E0935803E8EAF0E0E491E093590380E85C
:102860009EE3A0E0B0E080935E0390935F03A093AB
:102870006003B09361038CE291E0909345038093F1
:1028800044038EE0809346038FE08093470361E02A
:102890008EE00E94980260E0809147030E949802B7
:1028A000C1E0C093480360E0809146030E94680243
:1028B00084E493E00E94BB0410923003109236032C
:1028C00010923D0310923E0310923F03109240037A
:1028D000C0933C03C093390310923A03D0933B0357
:1028E000C0932F0384E290E09093340380933303EA
:1028F0000E9440169093380380933703009761F04D
:1029000024E2FC0111922A95E9F78CE090E0909383
:1029100032038093310308C01092340310923303C2
:10292000109232031092310386E080933503809138
:102930003003882341F061E086E00E94980260E065
:1029400086E00E946802ECEAF0E0E491F0E0EE0F2D
:10295000FF1FE456FF4F859194919093420380931B
:102960004103E0ECF0E0E491E093430340E050E009
:10297000BA0189E293E0DF91CF910C945504991B41
:1029800079E004C0991F961708F0961B881F7A9566
:10299000C9F780950895AA1BBB1B51E107C0AA1F68
:1029A000BB1FA617B70710F0A61BB70B881F991FF0
:1029B0005A95A9F780959095BC01CD010895A1E2A3
:1029C0001A2EAA1BBB1BFD010DC0AA1FBB1FEE1FA9
:1029D000FF1FA217B307E407F50720F0A21BB30BF4
:1029E000E40BF50B661F771F881F991F1A9469F770
:1029F00060957095809590959B01AC01BD01CF01CC
:102A00000895052E97FB1EF400940E94181557FD9B
:102A100007D00E94DF1407FC03D04EF40C94181565
:102A200050954095309521953F4F4F4F5F4F0895FA
:102A300090958095709561957F4F8F4F9F4F08952A
:102A4000EE0FFF1F0590F491E02D09945058BB271D
:102A5000AA270E943E150C9463180E94551838F05E
:102A60000E945C1820F039F49F3F19F426F40C946E
:102A700052180EF4E095E7FB0C944C18E92F0E94D5
:102A8000741858F3BA17620773078407950720F084
:102A900079F4A6F50C9496180EF4E0950B2EBA2F47
:102AA000A02D0B01B90190010C01CA01A001112454
:102AB000FF27591B99F0593F50F4503E68F11A1600
:102AC000F040A22F232F342F4427585FF3CF469591
:102AD00037952795A795F0405395C9F77EF41F16B3
:102AE000BA0B620B730B840BBAF09150A1F0FF0F7D
:102AF000BB1F661F771F881FC2F70EC0BA0F621F69
:102B0000731F841F48F4879577956795B795F79558
:102B10009E3F08F0B0CF9395880F08F09927EE0FED
:102B20009795879508950E94A7150C9463180E94A5
:102B30005C1858F00E94551840F029F45F3F29F0C6
:102B40000C944C1851110C9497180C9452180E9424
:102B5000741868F39923B1F3552391F3951B550B22
:102B6000BB27AA2762177307840738F09F5F5F4F60
:102B7000220F331F441FAA1FA9F335D00E2E3AF09F
:102B8000E0E832D091505040E695001CCAF72BD0B7
:102B9000FE2F29D0660F771F881FBB1F2617370708
:102BA0004807AB07B0E809F0BB0B802DBF01FF273A
:102BB00093585F4F3AF09E3F510578F00C944C18B3
:102BC0000C9497185F3FE4F3983ED4F3869577957D
:102BD0006795B795F7959F5FC9F7880F911D9695F3
:102BE000879597F90895E1E0660F771F881FBB1F4F
:102BF000621773078407BA0720F0621B730B840BFC
:102C0000BA0BEE1F88F7E09508950E940C166894A1
:102C1000B1110C94971808950E947C1888F09F5762
:102C200098F0B92F9927B751B0F0E1F0660F771FF0
:102C3000881F991F1AF0BA95C9F714C0B13091F0E6
:102C40000E949618B1E008950C949618672F782F7B
:102C50008827B85F39F0B93FCCF3869577956795AB
:102C6000B395D9F73EF490958095709561957F4F17
:102C70008F4F9F4F08950E94BB1708F48FEF089560
:102C8000CF93DF938230910510F482E090E0E091E1
:102C90006B03F0916C0320E030E0C0E0D0E03097AF
:102CA00011F14081518148175907C0F04817590761
:102CB00061F482819381209719F09B838A832BC0D2
:102CC00090936C0380936B0326C02115310519F096
:102CD0004217530718F49A01BE01DF01EF01028089
:102CE000F381E02DDCCF2115310509F1281B390BCB
:102CF0002430310590F412968D919C9113976115B3
:102D0000710521F0FB019383828304C090936C03CF
:102D100080936B03FD01329644C0FD01E20FF31F67
:102D200081939193225031092D933C933AC0209185
:102D3000690330916A03232B41F4209104013091FF
:102D4000050130936A0320936903209102013091B9
:102D500003012115310541F42DB73EB7409106011D
:102D600050910701241B350BE0916903F0916A0330
:102D7000E217F307A0F42E1B3F0B2817390778F052
:102D8000AC014E5F5F4F2417350748F04E0F5F1FB1
:102D900050936A03409369038193919302C0E0E0EA
:102DA000F0E0CF01DF91CF9108950F931F93CF9360
:102DB000DF93009709F48CC0FC01329713821282D2
:102DC00000916B0310916C030115110581F42081B2
:102DD0003181820F931F2091690330916A03281774
:102DE000390779F5F0936A03E093690371C0D8015C
:102DF00040E050E0AE17BF0750F412962D913C9181
:102E00001397AD012115310509F1D901F3CF9D01CA
:102E1000DA013383228360817181860F971F8217C5
:102E2000930769F4EC0128813981260F371F2E5F43
:102E30003F4F318320838A819B8193838283452BFB
:102E400029F4F0936C03E0936B0342C01396FC9358
:102E5000EE931297ED01499159919E01240F351F70
:102E6000E217F30771F480819181840F951F029618
:102E700011969C938E938281938113969C938E934B
:102E80001297E0E0F0E0D80112968D919C91139793
:102E9000009719F0F8018C01F6CF8D919C91980163
:102EA0002E5F3F4F820F931F2091690330916A0379
:102EB0002817390769F4309729F410926C0310929F
:102EC0006B0302C01382128210936A03009369039A
:102ED000DF91CF911F910F91089581E090E0F894D8
:102EE0000C94C918DC0101C06D9341505040E0F7CB
:102EF00008950E94BB1708F481E00895E89409C082
:102F000097FB3EF490958095709561957F4F8F4F1C
:102F10009F4F9923A9F0F92F96E9BB279395F69532
:102F2000879577956795B795F111F8CFFAF4BB0FB0
:102F300011F460FF1BC06F5F7F4F8F4F9F4F16C014
:102F4000882311F096E911C0772321F09EE8872F9E
:102F5000762F05C0662371F096E8862F70E060E05A
:102F60002AF09A95660F771F881FDAF7880F9695D3
:102F7000879597F90895990F0008550FAA0BE0E877
:102F8000FEEF16161706E807F907C0F0121613062B
:102F9000E407F50798F0621B730B840B950B39F46B
:102FA0000A2661F0232B242B252B21F408950A26D1
:102FB00009F4A140A6958FEF811D811D08950E94FF
:102FC000F2170C9463180E94551838F00E945C1890
:102FD00020F0952311F00C944C180C9452181124E5
:102FE0000C9497180E94741870F3959FC1F3950F75
:102FF00050E0551F629FF001729FBB27F00DB11D7D
:10300000639FAA27F00DB11DAA1F649F6627B00D0C
:10301000A11D661F829F2227B00DA11D621F739FF5
:10302000B00DA11D621F839FA00D611D221F749F03
:103030003327A00D611D231F849F600D211D822F4A
:10304000762F6A2F11249F5750409AF0F1F0882371
:103050004AF0EE0FFF1FBB1F661F771F881F91509E
:103060005040A9F79E3F510580F00C944C180C94E9
:1030700097185F3FE4F3983ED4F38695779567956C
:10308000B795F795E7959F5FC1F7FE2B880F911DC8
:103090009695879597F9089597F99F6780E870E06E
:1030A00060E008959FEF80EC089500240A941616BE
:1030B000170618060906089500240A941216130626
:1030C000140605060895092E0394000C11F48823B4
:1030D00052F0BB0F40F4BF2B11F460FF04C06F5FD0
:1030E0007F4F8F4F9F4F089557FD9058440F551FA6
:1030F00059F05F3F71F04795880F97FB991F61F07A
:103100009F3F79F087950895121613061406551FF0
:10311000F2CF4695F1DF08C0161617061806991F5C
:10312000F1CF86957105610508940895E894BB2751
:1031300066277727CB0197F90895DC01CB01FC01C5
:10314000F999FECF06C0F2BDE1BDF89A319600B400
:103150000D9241505040B8F70895F999FECF92BDB5
:1031600081BDF89A992780B50895A8E1B0E042E0C2
:1031700050E00C949F18262FF999FECF1FBA92BDEC
:1031800081BD20BD0FB6F894FA9AF99A0FBE019648
:10319000089510E0C8E6D0E004C0FE010E942015AA
:0C31A0002196C936D107C9F7F894FFCF7B
:1031AC00000200006D03800000000000D601690CD5
:1031BC00B5009300A7001D0200000000820152011F
:1031CC004A01360127012601000000001805B30151
:1031DC00643A20004F4B004E4F00733A206F6666E6
:1031EC0073657400743A2030006C3A2072006C3AAB
:1031FC002067006C3A206200636C6561722D616C13
:0E320C006C004F4B656E640D0A00656E640029
:00000001FF
